{
  "contractName": "thirmprotocoladdressmap",
  "abi": [
    {
      "constant": true,
      "inputs": [
        {
          "name": "_acct",
          "type": "address"
        },
        {
          "name": "_key",
          "type": "string"
        }
      ],
      "name": "getaddress",
      "outputs": [
        {
          "name": "",
          "type": "string"
        }
      ],
      "payable": false,
      "stateMutability": "view",
      "type": "function"
    },
    {
      "constant": false,
      "inputs": [
        {
          "name": "_key",
          "type": "string"
        },
        {
          "name": "_value",
          "type": "string"
        }
      ],
      "name": "setaddress",
      "outputs": [],
      "payable": false,
      "stateMutability": "nonpayable",
      "type": "function"
    }
  ],
  "bytecode": "0x60806040526103e760015534801561001657600080fd5b506104ef806100266000396000f30060806040526004361061004c576000357c0100000000000000000000000000000000000000000000000000000000900463ffffffff16806318fc38e014610051578063f40b462014610100575b600080fd5b34801561005d57600080fd5b506100fe600480360381019080803590602001908201803590602001908080601f0160208091040260200160405190810160405280939291908181526020018383808284378201915050505050509192919290803590602001908201803590602001908080601f0160208091040260200160405190810160405280939291908181526020018383808284378201915050505050509192919290505050610202565b005b34801561010c57600080fd5b50610187600480360381019080803573ffffffffffffffffffffffffffffffffffffffff169060200190929190803590602001908201803590602001908080601f01602080910402602001604051908101604052809392919081815260200183838082843782019150505050505091929192905050506102d4565b6040518080602001828103825283818151815260200191508051906020019080838360005b838110156101c75780820151818401526020810190506101ac565b50505050905090810190601f1680156101f45780820380516001836020036101000a031916815260200191505b509250505060405180910390f35b60015481511115151561021457600080fd5b806000803373ffffffffffffffffffffffffffffffffffffffff1673ffffffffffffffffffffffffffffffffffffffff168152602001908152602001600020836040518082805190602001908083835b6020831015156102895780518252602082019150602081019050602083039250610264565b6001836020036101000a038019825116818451168082178552505050505050905001915050908152602001604051809103902090805190602001906102cf92919061041e565b505050565b60606000808473ffffffffffffffffffffffffffffffffffffffff1673ffffffffffffffffffffffffffffffffffffffff168152602001908152602001600020826040518082805190602001908083835b60208310151561034a5780518252602082019150602081019050602083039250610325565b6001836020036101000a03801982511681845116808217855250505050505090500191505090815260200160405180910390208054600181600116156101000203166002900480601f0160208091040260200160405190810160405280929190818152602001828054600181600116156101000203166002900480156104115780601f106103e657610100808354040283529160200191610411565b820191906000526020600020905b8154815290600101906020018083116103f457829003601f168201915b5050505050905092915050565b828054600181600116156101000203166002900490600052602060002090601f016020900481019282601f1061045f57805160ff191683800117855561048d565b8280016001018555821561048d579182015b8281111561048c578251825591602001919060010190610471565b5b50905061049a919061049e565b5090565b6104c091905b808211156104bc5760008160009055506001016104a4565b5090565b905600a165627a7a72305820560d61cdabc30328641efae09df19975c40a0945e69e6a1444eaa9d178841ede0029",
  "source": "pragma solidity ^0.4.24;\r\n\r\n\r\ncontract thirmprotocoladdressmap {\r\n\r\n    mapping(address => mapping(string => string)) store;\r\n    uint MAX_LENGTH = 999;\r\n\r\n    function getaddress(address _acct, string _key) public view returns(string) {\r\n        return store[_acct][_key];\r\n    }\r\n    function setaddress(string _key, string _value) public {\r\n        require(bytes(_value).length <= MAX_LENGTH);\r\n        store[msg.sender][_key] = _value;\r\n    }\r\n}",
  "sourcePath": "C:/Users/sytechno/Desktop/mega/madhav/contracts/contracts/thirmprotocoladdressmap.sol",
  "compiler": {
    "name": "solc",
    "version": "0.4.24+commit.e67f0147.Emscripten.clang"
  },
  "schemaVersion": "3.2.4",
  "updatedAt": "2020-09-04T00:24:59.627Z",
  "networkType": "ethereum",
  "devdoc": {
    "methods": {}
  },
  "userdoc": {
    "methods": {}
  }
}